:020000040800F2
:10000000900C0020CD2E0008450100084701000893
:10001000490100084B0100084D01000800000000E4
:100020000000000000000000000000004F01000878
:1000300051010008000000005301000855010008AC
:10004000E72E0008E72E0008E72E0008E72E00083C
:10005000E72E0008E72E0008E72E0008E72E00082C
:10006000E72E0008E72E0008E72E0008E72E00081C
:10007000E72E0008E72E0008E72E0008E72E00080C
:10008000E72E0008E72E0008E72E0008E72E0008FC
:10009000E72E0008E72E0008E72E0008E72E0008EC
:1000A000E72E0008E72E0008E72E0008E72E0008DC
:1000B0001130000865300008E72E0008E72E000820
:1000C000E72E0008E72E0008E72E0008E72E0008BC
:1000D000E72E00084F0A0008E72E0008E72E000868
:1000E000E72E0008E72E0008E72E0008E72E00089C
:1000F000E72E0008E72E0008E72E0008E72E00088C
:10010000E72E0008E72E0008E72E0008E72E00087B
:10011000E72E0008E72E0008E72E0008E72E00086B
:10012000E72E0008E72E0008E72E0008E72E00085B
:10013000DFF80CD003F048FA00480047051000082B
:10014000900C00207047FEE7FEE7FEE7FEE77047F1
:100150007047704703F0D1B810B586B00121142064
:1001600001F073FD1020ADF814008DF81700032086
:10017000FF4C8DF8160005A9204601F07CFB1021EC
:10018000204601F0E6FBFB4C05A9204601F073FB7D
:100190001021204601F0DDFB03F09AF9F64C002116
:1001A000204601F042FE0021ADF800104FF48270AD
:1001B000ADF80200ADF808106015ADF80A0038205F
:1001C000ADF80C00ADF804100720ADF80610ADF83E
:1001D0000E10ADF810006946204601F0A9FD102070
:1001E00003F0ADF90121204601F01FFE06B010BD5D
:1001F00010B5DF4C2021204601F0ADFB1021204638
:1002000001F0A7FB2046BDE81040802101F0A1BB12
:1002100070B5D74D0E4604461021284601F09BFBD1
:1002200044F0800003F02EF9304603F02BF9284605
:10023000BDE87040102101F08CBB70B5CC4D044678
:100240001021284601F087FB04F07F0003F01AF923
:10025000FF2003F017F904461021284601F079FB2E
:10026000204670BD10B504460120FFF7E6FF00F000
:10027000F8012143BDE810400120C9E710B5012075
:10028000FFF7F0FF9F211120FFF7C2FFFF2124207D
:10029000FFF7BEFF00214020FFF7BAFF00214120F9
:1002A000FFF7B6FFBDE810400520DBE710B50446B8
:1002B0002620FFF7C2FF00F0F70040EAC400C1B2F9
:1002C000BDE810402620A3E770B504461E20FFF7C6
:1002D000B4FF05461F20FFF7B0FF032101EA1421F8
:1002E00005F0FC000843C1B2E4B21E20FFF790FF06
:1002F0002146BDE870401F208AE70146222087E79B
:1003000010B504461D20FFF798FF00F0FE012143C1
:10031000BDE810401D207BE710B504461D20FFF707
:100320008CFF64F31F10C1B2BDE810401D206FE7C1
:1003300010B504461E20FFF780FF00F0FB0040EAE6
:100340008400C1B2BDE810401E2061E710B504462C
:100350001D20FFF772FF00F0F10040EA4400C1B237
:10036000BDE810401D2053E710B504463120FFF7CB
:1003700064FF00F0F8012143BDE81040312047E759
:1003800010B504460320FFF7EFFF1E20FFF755FFCF
:1003900064F31F10C1B2BDE810401E2038E710B54D
:1003A00001460920FFF734FF3F210B20FFF730FF04
:1003B0008721BDE810404D202AE710B56F4C06207C
:1003C0002178FFF725FF61780720FFF721FFA1784B
:1003D000BDE8104008201BE710B504460120FFF7D8
:1003E0002CFF00F07F012143BDE8104001200FE702
:1003F00010B50020FFF736FF8020FFF7EDFF01204A
:10040000FFF730FF00214020FFF702FF00214120CD
:10041000FFF7FEFEFFF7D1FF5848801F0078FFF777
:10042000BEFF574C2078FFF7ABFF6078FFF78EFFD9
:100430000120FFF77DFFA078FFF76EFF0020FFF798
:100440005FFFFF20FFF759FF40F2FF30FFF73CFF4F
:100450000120FFF72BFFBDE810400FE770B5494DB5
:100460004FF480542146284601F075FA0A2002F024
:100470003CFF2146284601F06CFA0A2002F035FFC5
:10048000BDE87040B4E770B5394E05460024280633
:100490004FF08001304602D501F05BFA01E001F037
:1004A0005AFA2021304601F054FA002002F01DFFD4
:1004B0006806050E2021304601F04DFA002002F0BA
:1004C00014FF641CE4B2082CE1D370BD70B50024A5
:1004D000274E25462021304601F03BFA012002F04C
:1004E00014FF6006040E4021304601F01EFA08B1E8
:1004F00044F001042021304601F02DFA012002F0E1
:1005000004FF6D1CEDB2082DE4D3204670BD70B51C
:100510001D4D00EB40040620295DFFF779FE2C44B9
:1005200007206178FFF774FEA178BDE870400820CD
:100530006EE670B500F071F904221449144800F019
:10054000C7FA124C0D4D60782178AD1F00EB0120E9
:1005500080B2A88000F0E4F96078217800EB0121F6
:100560000CA003F08DF8A1780AA003F089F813E03D
:10057000000801400010014000300140060000204A
:1005800068000020000C0140C20000206C01002027
:1005900000F0000825640A00E178AFF2080003F0DB
:1005A0006FF80221204600F0D1F8688001464FA084
:1005B00003F066F8A078E17800EB012069888842B2
:1005C00001D14FA000E054A003F05AF8FFF746FF16
:1005D0004FF4FA74204602F088FE2046BDE87040D1
:1005E00002F083BE524A28B1012807D110211046DB
:1005F00001F0AFB91021104601F0ADB9704770B5E8
:1006000005460E460120FFF72DFE00212420FFF7AE
:10061000FFFDF7211120FFF7FBFD31462220FFF7F8
:10062000F7FD00210E20FFF7F3FD00210D20FFF75D
:10063000EFFD0020FFF7D6FF802002F023FF00240B
:1006400005E0287802F01EFF641CE4B26D1CB44281
:10065000F7D30120FFF7C6FF40210846FFF7D8FD7A
:1006600000214120FFF7D4FDBDE870400320F9E5EB
:10067000304810B501783048FFF7C1FF1220FFF76E
:10068000DCFD0007FAD510BD1220D6E570B52B4D64
:1006900000EB4004285DFFF773FE2C446078FFF701
:1006A00055FEA078BDE8704050E610B52249234CB5
:1006B000487820708A786270C978A170FFF760FE70
:1006C0006078FFF743FEA078BDE810403EE610B525
:1006D00004221B491B4800F0FBF9194841780078B7
:1006E00001EB00201849888010BD0000637263444C
:1006F0006174615F726561643D25640A00000000F9
:100700000D0A2043524320636865636B20697320A0
:1007100072696768740D0A000D0A20435243206312
:100720006865636B2069732077726F6E670D0A00CE
:10073000000801400C0000202A0200206800002070
:100740006C01002000F000080000002070B5674D2B
:10075000FF22134605F5807606E000BF10F8014B36
:1007600054402A5D5A40335D491E89B2F6D243EAAD
:10077000022070BD2DE9F0415D4D0E460746402137
:10078000284602F0BFFA0028F9D000240BE0395DBA
:10079000284602F056FA4021284602F0B3FA002813
:1007A000F9D0641CE4B2B442F1D3BDE8F08110B5D5
:1007B0001220FFF742FD4F49087000071AD59F210C
:1007C0001120FFF725FDFF212420FFF721FD002147
:1007D0004020FFF71DFD00214120FFF719FD0520F6
:1007E000FFF740FD00210E20FFF712FD00210D2034
:1007F000FFF70EFDFF21BDE810401220FFF708BDF6
:1008000010B50D20FFF734FF1220FFF716FD00286A
:1008100002D0BDE81040CAE710BD10B5032236492A
:10082000364800F055F93448354902780A70427864
:100830004A708078887010BD10B5044603222E4996
:100840002E4800F045F92C4A2E4B1178197050783B
:10085000587092789A70072908D0092917D007296B
:1008600008D00A291CD00C2920D023E0012804D06C
:10087000042806D002280FD01CE0092A1AD105202E
:1008800002E0092A16D1042000EBC40015E0032879
:1008900010D1092A0ED1F7E7072A0BD10220F3E77E
:1008A000042807D1092A05D10120EDE7012801D14B
:1008B000092A01D0002010BDE000C0B210BD0E49D1
:1008C00010B501225031104800F002F90A485030AA
:1008D000007810BD084910B501225F310A4800F0C8
:1008E000F7F805485030C07B10BD00008039000883
:1008F0000038014050010020BC01002000400108E8
:10090000680000205C0700200090010870476049E3
:100910000A885206FCD55E4AC1B2121D118070478A
:10092000F0B5054691B0012144F2040001F08DF9C3
:100930000121084601F080F9554E304602F088F852
:100940007015ADF83C0003248DF83E401820514F3F
:100950008DF83F000FA9384600F08DFF3015ADF837
:100960003C0004208DF83F000FA9384600F083FFBB
:100970004FF4E06000F0AEFB25208DF840008DF8CC
:1009800041408DF8424001208DF8430010A800F04E
:10099000A6FB0024ADF834400C20ADF83040ADF893
:1009A00036000B95ADF83240ADF838400BA9304613
:1009B00002F07EF8012240F22441304602F0F5F8C0
:1009C00001224021304602F008F90121304602F0B0
:1009D000E2F8314D284600F0D5FB301D00902F483D
:1009E000CDE90104FF20CDE903048020CDE9050411
:1009F0004001CDE908400794694628460A9400F072
:100A00002EFC0121284600F054FC11B0F0BD10B5B9
:100A10000446002100F04DFCFF21204600F05CFC64
:100A20002046BDE81040012100F043BC10B504464B
:100A300002F007F98021204602F064F90028F9D07D
:100A40004021204602F05EF90028F9D010BD70B5B3
:100A50000F4C40F224452946204602F05DF900285B
:100A600014D0204602F0F1F80B4E304600F036FC70
:100A7000C0F1FF010A48418001210170294620464A
:100A800002F069F93046BDE87040C0E770BD000073
:100A90000038014000080140580002402A020020AE
:100AA0000A000020008870472DE9F04116460F46E5
:100AB0000546002408E000BF37F81410284600F06F
:100AC0005CFD641CA4B2AD1CB442F5D3BDE8F0815A
:100AD00010B5002306E000BF30F8024B21F81340A8
:100AE0005B1C9BB29342F7D310BD2DE9F05FA0F1E0
:100AF000006415468A468346B4F5003F53D200F0A1
:100B00003EFCA70AC4F34806C6F50074A54200D807
:100B10002C46DFF8A49000BF4FF0006000EB872068
:100B200080464FF400722449FFF7D2FF00204FF6B1
:100B3000FF7106E0331839F813208A4203D1401CB4
:100B400080B2A042F6D3A04225D2404600F052FC2B
:100B50000020494607E000BF3AF810208319401CE6
:100B600021F8132080B2A042F6D3134940464FF437
:100B7000007200BFFFF798FFA54210D0281B0AEBB8
:100B8000440AA344002685B24FF400747F1CA5429A
:100B9000C2D82C46C0E7224651465846EAE7BDE88F
:100BA000F05F00F0F8BBBDE8F09F13B5012201A98A
:100BB000FFF79BFF1CBD00002A03002070B50D4607
:100BC000FE4C30F81510090A217010F815006070FD
:100BD00002212046FFF7BAFDF949020A4880A070B9
:100BE000E27004F10A01237801F8253001EB850158
:100BF00063784B708870CA7070BD2DE9F047FFF7BD
:100C000066FDF04E4021304600F0A5FEEE4CEC4D66
:100C10002078C03806287BD2DFE800F003F7F6F52D
:100C2000F4F320792870E64DE44FE0785435DFF88E
:100C30009C931637DFF898A305F109061C287BD092
:100C40001FDC182840D00EDC042828D00C282FD018
:100C500014285DD10221A5F11400FFF7AFFF042293
:100C6000391F48462DE0192840D01A2852D01B2899
:100C70004ED1D34803214030FFF7A0FF042239466C
:100C8000A6E0CE4CDFF84C831A341D3809283FD239
:100C9000DFE800F06F3E3E81838E97A7BC00C84816
:100CA00000214030FFF78AFFC44904220A3186E060
:100CB000C34801214030FFF781FFC04904220E31B3
:100CC0004846FFF712FF4FE0BD4803214030FFF7D1
:100CD00075FF042239464846FFF707FF0620FFF755
:100CE000D5FCB749032266315046EAE7B4480321F0
:100CF0004030FFF763FF042239464846FFF7F5FE10
:100D00000520FFF7C3FCAE49032263315046D8E704
:100D100002E111E0AA4803214030FFF74FFF04220F
:100D200039464846FFF7E1FE0A20FFF7AFFCA44929
:100D3000032272315046C4E7A14803214030FFF737
:100D40003DFF042239464846FFF7CFFE2079FFF7E2
:100D5000DEFB0120FFF79AFC0322E91C5046FFF757
:100D6000C4FE2079FFF7D3FBBDE8F0479AA002F05C
:100D700087BC934803214030FFF720FF0422394607
:100D80004846FFF7B2FE0920FFF780FC8C4903229A
:100D90006F31504695E7052000E00120FFF776FC13
:100DA0004046BDE8F047864903225431FFF79DBE17
:100DB000834804214030FFF701FF042221464846C2
:100DC0007FE77F4804214030FFF7F8FE04222146E8
:100DD0004846FFF78AFE0320FFF758FC03223146FE
:100DE00024E0774804214030FFF7E8FE0422214642
:100DF0004846FFF77AFE0120FFF748FC0322E91C72
:100E000014E0B5E0A4E095E071E011E06C48042145
:100E10004030FFF7D3FE042221464846FFF765FE27
:100E20000020FFF733FC664903225431504648E75F
:100E30006078C12870D1A078C1286DD1FFF747FC38
:100E40008021304600F087FD65480088B0F5965F48
:100E500026D006DCB0F5966F0AD0B0F5166F40D1FB
:100E600011E0B0F5165F26D0B0F5964F39D12DE0E0
:100E70000020FFF7E1FC01465148001DC1702978B0
:100E80000171062109E00120FFF7D6FC01464C481C
:100E90000E30C170297801710621FFF76BFC20E04C
:100EA0000220FFF7C9FC014645481830C170297877
:100EB00001710621F1E70320FFF7BEFC014640481F
:100EC0002230C170297801710621E6E70420FFF77E
:100ED000B3FC01463A482C30C170297801710621D3
:100EE000DBE73046BDE8F047802100F032BDE07816
:100EF000192814D008DC082813D0092813D010288A
:100F000013D0182841D108E0202806D0212806D087
:100F100022283AD1092009E037E0052006E0012027
:100F200004E00A2002E00B2000E00C20BDE8F047BE
:100F3000FFF7ACBB6078C32827D1A078C32824D1A1
:100F40008021304600F007FD26A002F099FBC8E79B
:100F5000A078C42819D1E078C42816D125480168A2
:100F6000254A01F4E06111430160BFF3408FFEE7C1
:100F70006078C52809D1A078C52806D1BDE8F0471A
:100F80000F4803213630FFF7F5BBBDE8F08770B599
:100F900013480088FFF7C4FC18480024094D04706A
:100FA0004021284600F0D7FCFFF72AFC14484021D6
:100FB00004802846BDE8704000F0CBBC2A07002022
:100FC00014000020001001402A02002000F0000858
:100FD0000040010800C800084F4B0D0A0000000047
:100FE00004000020415336322D5433302D56312E1B
:100FF000300D0A000CED00E00400FA050A000020A4
:101000000C000020FFF7A8F802F0F7F802F01BF937
:101010004FF416573846FFF783FC4FF4A06000F0FA
:1010200059F802F041F941F61F41092001F077FF1C
:10103000FFF77FFA012218491848FFF756FDFFF71E
:1010400049FC1749087017A002F01AFBB8461D4C5E
:101050001D4EDFF878901E4F0025207888B125704E
:101060003078012802D0FFF792FFF6E74046FFF7FD
:1010700057FCFFF7C2FD4021484600F06AFC3D8066
:10108000EBE71220FFF7D9F80028E6D002F00BF8C2
:10109000E3E7FFF70ABB000095000020009001087D
:1010A000140000200D0A202073797374656D206987
:1010B0006E697469616C20646F6E652E2E2E2E2E03
:1010C000200D0A000A0000206001002000100140ED
:1010D0000C0000202849084328490860704770B573
:1010E0000F23C47801780122F4B1244C2468457898
:1010F00004F4E064C4F5E064240AC4F10406E340A7
:101100008478B5401C402C4301F1E021230181F893
:101110000034007800F01F018A404009800000F18F
:10112000E020C0F8002170BD01F01F008240480996
:10113000800000F1E020C0F8802170BD104A11400D
:1011400001430E48001F016070470C4A121D002920
:10115000116801D0014300E08143116070474FF0F6
:10116000E0210428086903D020F0040008617047DA
:1011700040F00400FAE700000000FA050CED00E082
:1011800080FFFF1F01684FF6FE72114001600021D1
:10119000016041608160C1606A496A4A08399042D1
:1011A00003D1486840F00F0006E0664A14329042CE
:1011B00004D1486840F0F00048607047614A283226
:1011C000904203D1486840F47060F5E75D4A3C32D4
:1011D000904203D1486840F47040EDE7594A5032DC
:1011E000904203D1486840F47020E5E7554A6432E4
:1011F000904203D1486840F47000DDE7514A7832EC
:10120000904203D1486840F07060D5E74E4A111F04
:10121000904203D1086840F00F0006E04A4A1432B9
:10122000904204D1086840F0F00008607047464AD8
:101230002832904203D1086840F47060F5E7424AD2
:101240003C32904203D1086840F47040EDE73E4ADA
:1012500050329042EAD1086840F47020E5E730B59A
:10126000036847F6F07293430C6A8A682243D1E917
:1012700004452C4322438C692243CC6922434C6AA7
:1012800022438C6A22431A430260CA6842600A6899
:1012900082604968C16030BD0021016041608160A9
:1012A000C160016141618161C1610162416281622C
:1012B00070470029016802D041F0010102E04FF6B9
:1012C000FE72114001607047002A026801D00A4393
:1012D00000E08A430260704741607047406880B216
:1012E000704701460020CA0002D5174A083A01E0BB
:1012F000144A083A12680A4200D001207047C1001F
:1013000003D51149091F086070470E490839486024
:10131000704701460020CA0002D50B4A083A01E096
:10132000084A083A12680A4200D001207047C100FA
:1013300003D50549091F086070470249083948600C
:10134000704700000800024008040240FC4A11688F
:1013500001F03801014311607047F9490A6822F031
:1013600008020A600A6802430A607047F4490A6882
:1013700022F010020A600A6802430A607047F048CF
:10138000F0494160F04941607047ED48ED494160E6
:10139000ED4941607047EA48016941F0800101610F
:1013A0007047E748016941F0800101617047E449F5
:1013B0000420CA68D20701D001207047CA685207CA
:1013C00001D502207047C968C906FBD503207047C4
:1013D00000B50346FFF7EBFF03E000BFFFF7E7FFB1
:1013E0005B1E012803D0002B00D1052000BD002B7F
:1013F000F4D1FAE770B505464FF430263046FFF7D2
:10140000E7FF042811D1CE4C206940F00200206192
:101410006561206940F0400020613046FFF7D8FF49
:10142000216941F6FD721140216170BD30B54FF464
:1014300030252846FFF7CCFF042810D1C04C206986
:1014400040F004002061206940F0400020612846FF
:10145000FFF7BEFF216941F6FB721140216130BDEB
:1014600000B50346FFF7A3FF03E000BFFFF79FFFB0
:101470005B1E012803D0002B00D1052000BD002BEE
:10148000F4D1FAE730B54FF430252846FFF7E8FFEE
:10149000042810D1AA4C206940F004002061206982
:1014A00040F0400020612846FFF7DAFF216941F64D
:1014B000FB721140216130BDA1490020C969890733
:1014C00000D50120704770B5A525FFF7F5FF00B1E5
:1014D00000254FF430263046FFF77AFF042827D145
:1014E000974C9848A0609848A060206940F0200080
:1014F0002061206940F0400020613046FFF768FF1E
:1015000041F6EF7604280ED1206941F6DF710840DC
:101510002061206940F0100020618C4805804FF464
:101520000050FFF755FF052802D0216931402161A5
:1015300070BDF8B5064600204FF4005C00900D46E3
:101540006046FFF745FF042816D17D4C206940F026
:101550000100206135806046FFF73AFF41F6FE77D3
:10156000042806D1B61C280C009630806046FFF790
:101570002FFF216939402161F8BDF0B506464FF4CF
:1015800000570D463846FFF723FF04280CD16C4C5A
:10159000206940F00100206135803846FFF718FFD0
:1015A0002169BA1E11402161F0BDF0B506464FF425
:1015B00000570D463846FFF70BFF042813D1604C47
:1015C0006048A0606048A060206940F01000206181
:1015D00035803846FFF7FCFE052804D0216941F626
:1015E000EF7211402161F0BD2DE9F041C04300F0E0
:1015F000FF0CC0F30727C0F30746050E4FF4005851
:101600004046FFF7E5FE042837D14D4C4D49A16017
:101610004D49A160216941F010012161BCF1FF0F2A
:1016200008D04A480830A0F800C04046FFF7D0FE76
:1016300004281BD1FF2F07D044480A3007804046BA
:10164000FFF7C6FE042811D1FF2E07D03F480C300B
:1016500006804046FFF7BCFE042807D1FF2D07D0C7
:101660003A480E3005804046FFF7B2FE052804D008
:10167000216941F6EF7211402161BDE8F08170B53A
:1016800005464FF430263046FFF7A2FE042818D155
:101690002B4C2C48A0602C48A060206940F0200012
:1016A0002061206940F0400020613046FFF790FE45
:1016B00041F6DF71042805D0052802D022690A40CE
:1016C000226170BD206908402061206940F010004F
:1016D00020611E480DB1002100E0A52101803046A7
:1016E000FFF776FE0528ECD0216941F6EF72114034
:1016F000216170BDF0B5124C0746124816460D46E2
:10170000A0601148A0604FF4005C6046FFF760FEE7
:10171000042814D1206940F01000206135430B49A2
:101720003D43891C45F0F80008806046FFF750FEF5
:10173000052804D0216941F6EF7211402161F0BD06
:101740000020024023016745AB89EFCD00F8FF1F61
:101750001C48C069800870471A48006A70471949D8
:1017600000200968890600D501207047154A002924
:10177000116901D0014300E08143116170470146C6
:101780000020104A012903D0D2680A4203D17047D1
:10179000D169C907FBD0012070470A49C86070476A
:1017A00008490420CA68D20701D001207047CA68DE
:1017B000520701D502207047C968C906FBD503202E
:1017C0007047000000200240914910B5884206D1C0
:1017D0000121042000F04BFA002104203BE08D4958
:1017E000884206D10121082000F041FA002108209A
:1017F00031E08949884206D10121102000F037FAF2
:101800000021102027E08549884206D101212020AF
:1018100000F02DFA002120201DE08149884206D1E8
:101820000121402000F023FA0021402013E07D49EF
:10183000884206D10121802000F019FA0021802081
:1018400009E0794988420AD184150121204600F037
:101850000EFA00212046BDE8104000F008BA10BD85
:1018600010B50121084600F002FA0021BDE8104041
:10187000012000F0FCB9F0B5CA78002502F00F0392
:10188000D20601D58A7813430A784FF00F0E12F072
:10189000FF0F4FF001021DD0D0F800400F8802FA70
:1018A00005F63740B74211D14FEA850C0EFA0CF716
:1018B00024EA070703FA0CF43C43CF78282F02D020
:1018C000482F02D002E0466100E006616D1C082D41
:1018D000E4D304600C88FF2C1ED944685FF0000636
:1018E00006F1080702FA07F50F882F40AF420FD123
:1018F0004FEA860C0EFA0CF7BC4303FA0CF73C4394
:10190000CF78282F00D14561CF78482F00D10561CD
:10191000761C082EE4D34460F0BD4FF6FF710180C1
:10192000022181700421C170704702460020926834
:101930000A4200D001207047806880B2704702469A
:101940000020D2680A4200D001207047C06880B2EF
:10195000704701617047416170470AB1016170478A
:1019600041617047C160704741F48032826181619A
:1019700082618169806970472C4B10B51A684FF6F7
:101980008074224042EA00100843186010BD2849C4
:10199000C8617047F0B5254C002801DAE36900E022
:1019A0006368420D120185B2C0F301579540C0F340
:1019B0000346032F05D0C2020AD50322B240934347
:1019C00007E023F07062636823F07063636002E0F5
:1019D000AB4343F0706201B12A43002801DAE261AF
:1019E000F0BD6260F0BD10B58A0721F003040F4915
:1019F000130F21440F228C689A4094438C608A68AC
:101A0000984002438A6010BD0949C1F8DC00704764
:101A100000080140000C014000100140001401408A
:101A200000180140001C014000200140000001405E
:101A300000002042A448016841F0010101604168B2
:101A4000A24A114041600168A14A11400160016849
:101A500021F480210160416821F4FE0141604FF4CE
:101A60001F018160704798490A6822F480320A6039
:101A70000A6822F480220A60B0F5803F07D0B0F5F2
:101A8000802F03D1086840F4A020086070470868E0
:101A900040F48030F9E70246002053098A49012BBF
:101AA0000AD0022B0AD0496A02F01F020123934098
:101AB0000B4200D0012070470968F5E7096AF3E797
:101AC00018B500204FF4A06400903120FFF7E3FF29
:101AD0000099491C0091A14201D00028F5D0312085
:101AE000FFF7D9FF002800D0012018BD76490A6809
:101AF00022F0F80242EAC0000860704775490860A9
:101B00007047714A5368084323F47C1318435060AC
:101B100070477049086670476B4A516821F00301AD
:101B20000143516070476848406800F00C007047FE
:101B3000654A516821F0F001014351607047624AE3
:101B4000516821F4E0610143516070475E494A6881
:101B500022F4605242EAC000486070475A4A0029A5
:101B6000517A01D0014300E08143517270475949D5
:101B7000C1F8D8007047544A516821F440410143EC
:101B8000516070475049002281F8202081F82020C0
:101B9000012802D0042802D1052081F820007047D6
:101BA0004D490860704748490A6A02430A62704713
:101BB000494944390860704730B543494A6812F0D2
:101BC0000C03464A03D0042B01D0082B21D002601D
:101BD0004A680F23424C03EA1212A35C0268DA40FF
:101BE00042604B68072505EA1323E35C22FA03F3FE
:101BF00083604B6805EAD323E35CDA40C26049683E
:101C0000032303EA9131231F595CB2FBF1F1016117
:101C100030BD4A684B6802F470124FF0020413F4AE
:101C2000803F04EB924202D04B689B0301D52D4BC1
:101C300000E02A4B5A43CAE7234A0029516901D0E0
:101C4000014300E08143516170471F4A00299169B7
:101C500001D0014300E08143916170471A4A002995
:101C6000D16901D0014300E08143D1617047164A38
:101C70000029D16801D0014300E08143D160704761
:101C8000114A0029116901D0014300E0814311612B
:101C9000704711494039086070470E49C864704761
:101CA0000949C87170470848416A41F08071416232
:101CB0007047054A0146002092680A4200D0012080
:101CC0007047014988727047001002400000FFF819
:101CD000FFFFF6FE000042428004424200127A00FA
:101CE0002901002000093D00994910B588420AD118
:101CF000841401212046FFF7BAFF2046BDE81040BA
:101D00000021FFF7B4BF9349884202D10121041496
:101D100004E0914988420AD10121C4132046FFF70B
:101D2000AFFF2046BDE810400021FFF7A9BF10BD5E
:101D300030B502884C8802F441530A88CD8822438A
:101D40008C882C4322430C8922434C8922438C8962
:101D50002243CC8922431A430280828B22F4006200
:101D60008283098A018230BDF0B505460C46022007
:101D70000021AA8B85B001264FF240031A40AA83A6
:101D80002884AF8BA268022A27D0A08800B102263F
:101D90006846FFF711FFE1880098B1F5007F2DD06C
:101DA0007101B0FBF1F000BF00EB8000A1684000C2
:101DB000B0FBF1F0401D80B20A21B0FBF1F000F061
:101DC0000101401A4FF6FF72C0F34F0002EA0121F1
:101DD000821EFE2A01D302200021E288084302432A
:101DE0002A8420886188A2890843A1881143084376
:101DF000384340F40060A88305B0F0BD000AD3E783
:101E00000021018041808180C180018141818181E7
:101E1000C1810721018270470021018041808180BA
:101E2000C18002228260818170470029018802D02E
:101E300041F0400101E021F040010180704700299C
:101E4000818B02D041F4806101E021F480618183C3
:101E50007047090901238B40002A828899B201D07A
:101E60000A4300E08A4382807047002A828801D0BA
:101E70000A4300E08A4382807047818170478089ED
:101E80007047A1F57E420188FF3A02D041F480718B
:101E900001E021F48071018070470029818802D01F
:101EA00041F0040101E021F00401818070470288C3
:101EB00022F40062028002880A430280704701888F
:101EC00041F48051018070470029018802D041F41B
:101ED000005101E021F4005101807047012901D037
:101EE000008B7047808A7047008A7047B1F5804F39
:101EF000018803D021F480410180704741F4804182
:101F0000FAE70246002012890A4200D001207047F9
:101F1000C9430181704710B501F00F040122034647
:101F200002FA04F4002009098A4091B29A88A4B206
:101F30000A401989214202D0002A00D0012010BD98
:101F400001F00F0201219140C94301817047000057
:101F50000030014000380040003C0040F94910B515
:101F6000884202D10121C41486E0B0F1804F09D02B
:101F7000F54988420DD101210220FFF781FE0021A1
:101F8000022064E001210846FFF77AFE00210120CB
:101F90005DE0EE49884206D101210420FFF770FE82
:101FA0000021042053E0EA49884206D1012108209B
:101FB000FFF766FE0021082049E0E649884206D185
:101FC00001211020FFF75CFE002110203FE0E249D4
:101FD000884206D101212020FFF752FE0021202057
:101FE00035E0DE49884202D10121441444E0DC4955
:101FF000884202D10121CC043EE0DA49884202D174
:1020000001210C0538E0D849884202D101214C0554
:1020100032E0D649884206D101214020FFF730FE48
:102020000021402013E0D249884206D101218020BE
:10203000FFF726FE0021802009E0CE4988420AD120
:10204000841501212046FFF71BFE00212046BDE834
:102050001040FFF715BEC849884202D101210C0487
:102060000AE0C649884202D101214C0404E0C44977
:1020700088420AD101218C042046FFF7F8FD204652
:10208000BDE810400021FFF7F2BD10BD30B5028859
:10209000AC4BB24C98420DD0A0420BD0B0F1804F67
:1020A00008D0A94DA84205D0A84DA84202D0A84DFD
:1020B000A84203D122F070054A882A43A54DA842C0
:1020C00006D0A54DA84203D022F44075CA882A4301
:1020D00002808A8882850A88028598420AD0A042B6
:1020E00008D0A54A904205D0A44A904202D0A44A02
:1020F000904201D1097A01860121818230BD30B53B
:10210000028C22F001020284028C8388048B22F06C
:10211000020224F073050C882C430D8915434A886C
:102120002A43884DA8420BD08C4DA84208D0924D2E
:10213000A84205D0914DA84202D0914DA8420DD1A0
:1021400022F008054A8923F440732A4322F004054B
:102150008A882A438D891D43CB892B43838004833E
:10216000C9888186028430BD70B5028C22F01002CD
:102170000284028C8488038B0D8823F4E6464FF694
:10218000FF7303EA052535430E8922F0200203EA96
:10219000061616434A8803EA02123243694EB042D9
:1021A00002D06E4EB04215D122F080064A8924F446
:1021B000406403EA0212324322F040068A8803EAAE
:1021C000021232438E8903EA86062643CC8903EA4B
:1021D0008404344384800583C9880187028470BDE8
:1021E00070B5028C22F480720284028C8488838B06
:1021F0000D8823F073031D4322F400730E894FF6FC
:10220000FF7202EA06261E434B8802EA0323334389
:102210004C4EB04202D0514EB04215D123F400666C
:102220004B8924F4405402EA0323334323F48066A9
:102230008B8802EA032333438E8902EA061626437B
:10224000CC8902EA0414344384808583C988818759
:10225000038470BD70B5028C22F480520284048C19
:102260008288838B0D8823F4E6464FF6FF7303EADA
:102270000525354324F400560C8903EA043434431D
:102280004E8803EA063626432E4CA04202D0334C39
:10229000A04205D122F480448A8903EA82122243B3
:1022A00082808583C988A0F84010068470BD828B27
:1022B00022F440628283828B4FF6FF7303EA01218E
:1022C0000A4382837047828B22F00C028283828BC6
:1022D0000A4382837047028B22F440620283028B9E
:1022E0004FF6FF7303EA01210A4302837047F0B5FA
:1022F000048C24F010040484078B048C4FF6FF75C3
:1023000027F4734705EA03333B4305EA02221A43E5
:102310000C4B05EA011698420ED0104B98420BD098
:10232000B0F1804F08D0084B984205D0074B984237
:1023300002D0074B984225D124F02001314341F0CF
:10234000100124E0002C014000040040000800407F
:10235000000C004000100040001400400034014018
:10236000004C014000500140005401400018004062
:10237000001C00400020004000400140004401409B
:102380000048014024F0A0030B4343F010010283F6
:102390000184F0BD028B22F00C020283028B0A43FF
:1023A0000283704770B5048C24F001040484058B0B
:1023B000048C4FF6FF7606EA0313134325F0F3056A
:1023C000F94A2B4390420ED0F84A90420BD0B0F11C
:1023D000804F08D0F64A904205D0F64A904202D08B
:1023E000F54A904202D124F0020201E024F00A02F0
:1023F0000A4342F001010383018470BD2DE9F05FBF
:102400000D4604460888E84FDFF8A0C3DFF8A08334
:102410004988AA882B894FF0804960B3042832D0BC
:102420004FF6FF7E082836D0208C9B4620F4805043
:102430002084A38B268C704600EA022223F4734387
:102440001A4300EA0B3010430EEA013EBC420BD0A7
:10245000644509D04C4507D0444505D0D54A94423F
:1024600002D0D54B9C4245D126F4005141EA0E01E1
:1024700041F4805143E02046FFF794FFE98820466D
:10248000BDE8F05F86E72046FFF731FFE988204688
:10249000BDE8F05F1FE7208C20F480702084B4F842
:1024A0001CA0208C0EEA031313432AF0F30A0EEA51
:1024B000012B43EA0A03BC420BD0644509D04C45CA
:1024C00007D0444505D0BB4A944202D0BA4A944250
:1024D00004D120F4007040EA0B0002E020F42060F8
:1024E000084340F48070A3832084E9882046BDE837
:1024F000F05FE8E626F402420A4342F48051A083EA
:1025000020462184E988BDE8F05FD0E62DE9F0415E
:102510000C46002649880746012501B90226A288F3
:10252000012A00D10225208823890028384610D0AE
:10253000FFF7DDFEE1883846FFF7CDFE23892A4606
:1025400031463846FFF72EFFE1883846BDE8F041B6
:1025500020E7FFF727FFE1883846FFF71BFF2389B5
:102560002A4631463846FFF7C2FEE1883846BDE8C4
:10257000F041B0E610B50A884B88CC881A438B88A6
:1025800023431A430B891A434B8989891A430A4307
:10259000A0F8442010BD4FF6FF718180002101801A
:1025A000C18041800172704700210180418081809B
:1025B000C180018141818181C181704700210180F9
:1025C000418001228280C180018170470021018009
:1025D00041808180C18001814181818170470029D2
:1025E000018802D041F0010101E021F001010180E8
:1025F0007047002930F8441F02D041F4004101E047
:10260000C1F30E0101807047002A828901D00A437C
:1026100000E08A4382817047818270471143A0F8AD
:1026200048107047002A828901D00A4300E08A439B
:1026300082817047018921F0070101817047028979
:1026400022F070020A430281704700B50346FFF78B
:10265000F6FF188940F00700188100BD70B51646D6
:102660000D46602904464FF0010231460AD0FFF7BB
:1026700099FE29462046FFF7E2FF208940F0070037
:10268000208170BDFFF733FEF3E730B504894FF6C4
:10269000FF7505EA03231343E4B20B43234303818D
:1026A00030BD10B50446FFF7F0FF208940F07700F9
:1026B000208110BD10B50446FFF7E7FF208940F4E4
:1026C0008040208110BD018582827047028822F0FF
:1026D00070020A430280704770B50589048B068C2E
:1026E00025F007050D434FF6FC410C4040F2011167
:1026F0000C434FF6FF7101EA031126F02206114345
:10270000314305810483018470BD028B22F0700285
:102710000A4302837047028B4FF6FF7322F4E042B4
:1027200003EA0121114301837047828B22F070027A
:102730000A4382837047828B4FF6FF7322F4E04294
:1027400003EA01211143818370470029018802D0E7
:1027500041F0800101E021F08001018070470029F3
:10276000818802D041F0040101E021F00401818060
:1027700070470029818802D041F0080101E021F072
:102780000801818070470029818802D041F0010151
:1027900001E021F0010181807047028B22F00802E4
:1027A0000A43028370470000002C014000340140BE
:1027B0000004004000080040000C0040028B4FF66F
:1027C000FF7322F4006203EA012111430183E9E768
:1027D000828B22F008020A438283E3E7828B4FF662
:1027E000FF7322F4006203EA012111438183D9E7D8
:1027F000028B22F004020A430283D3E7028B4FF6D6
:10280000FF7322F4806203EA012111430183C9E7C7
:10281000828B22F004020A438283C3E7828B4FF645
:10282000FF7322F4806203EA012111438183B9E737
:10283000028B22F080020A430283B3E7028B4FF639
:10284000FF73C2F30E0203EA012111430183A9E7DA
:10285000828B22F080020A438283A3E7828B4FF6A9
:10286000FF73C2F30E0203EA01211143818399E74A
:10287000028C22F002020A43028493E7028C22F0C7
:1028800008020A4302848DE7028C4FF6FF7322F0A0
:10289000200203EA01111143018483E7028C4FF601
:1028A000FF7322F0800203EA01111143018479E7EA
:1028B000028C4FF6FF7322F4007203EA01211143E8
:1028C00001846FE7028C4FF6FF7322F4006203EA83
:1028D00001211143018465E7028C4FF6FF7322F456
:1028E000005203EA0131114301845BE710B5012373
:1028F000048C8B409C430484038C8A4013430384E0
:1029000010BD10B50423048C8B409C430484038CBD
:102910008A401343038410BD30B50124058C00F1B7
:1029200018038C40A543058489B108290FD0091FDD
:10293000C1F34E001844016821F4E04101600168D0
:102940004FF6FF7303EA02221143016030BD03EB2F
:102950005100016821F0700101600168F4E700296D
:10296000018802D041F0020101E021F00201018062
:1029700018E70029018802D041F0040101E021F0AC
:10298000040101800EE70029818802D041F0800116
:1029900001E021F08001818004E7028822F0080232
:1029A000028002880A430280FCE6828822F07002DC
:1029B000828082880A438280F4E6028922F007023C
:1029C000028102890A430281ECE6028922F0800238
:1029D000028102890A430281E4E68184E2E681857C
:1029E000E0E68186DEE60187DCE68187DAE6A0F8AC
:1029F0004010D7E6028822F44072028002880A431F
:102A00000280CFE6808ECDE6008FCBE6808FC9E6D0
:102A1000B0F84000C6E6808CC4E6008DC2E60246EF
:102A20000020128A0A4200D00120BBE6C94301827D
:102A3000B8E602460020138A92890B4202EA01029C
:102A400002D0002A00D00120ACE6C9430182A9E6E9
:102A5000C44910B588420AD101218C032046FFF7F2
:102A600006F92046BDE810400021FFF700B9BE4935
:102A7000884202D101214C0410E0BC49884202D1B5
:102A800001218C040AE0BA49884202D10121CC0418
:102A900004E0B84988420AD101210C052046FFF71D
:102AA000EFF82046BDE810400021FFF7E9B810BD5F
:102AB00030B50446008A85B00D464CF6FF710840DB
:102AC000E98801432182A1894EF6F3100140A888CC
:102AD0002A8910436A890A431043A081A08A4FF6CD
:102AE000FF410840A9890143A1826846FFF764F8C5
:102AF0009C48844201D1039800E00298A18909040E
:102B000000EBC00101EB0010296801D5490000E08D
:102B10008900B0FBF1F06422B0FBF2F109010B096E
:102B20006FF018056B4300EB8300A3891D044FF081
:102B3000320306D503EBC000B0FBF2F000F0070053
:102B400005E003EB0010B0FBF2F000F00F000843CB
:102B5000208105B030BD4FF4165101600021818005
:102B6000C18001810C2242818181704710B5038AA6
:102B70004FF2FF0213400A884C8822438C88C98890
:102B80000C4322431A43028210BD00210180418080
:102B90008180C18070470029818902D041F40051B1
:102BA00001E021F400518181704710B5C1F3421357
:102BB00001F01F040121A140012B07D0022B07D0F7
:102BC0001430002A026805D00A4304E00C30F8E70C
:102BD0001030F6E78A43026010BD002A828A01D0D5
:102BE0000A4300E08A4382827047028A22F00F0281
:102BF0000282028A0A4302827047828922F40062BA
:102C0000828182890A43828170470029818902D0AA
:102C100041F0020101E021F0020181817047028A46
:102C200022F020020282028A0A43028270470029AF
:102C3000018A02D041F4804101E021F48041018207
:102C40007047C1F30801818070478088C0F3080095
:102C50007047818941F0010181817047028BD2B2B6
:102C60000283028B42EA012101837047028B02F446
:102C70007F420283028B0A43028370470029818AC4
:102C800002D041F0200101E021F020018182704753
:102C90000029818A02D041F0100101E021F01001E9
:102CA000818270470029818A02D041F0080101E049
:102CB00021F00801818270470029818902D041F406
:102CC000004101E0C1F30E01818170470029818A32
:102CD00002D041F4006101E021F40061818270477B
:102CE000828A22F004028282828A0A4382827047A8
:102CF0000029818A02D041F0020101E021F00201A5
:102D0000818270470246002012880A4200D00120CA
:102D10007047C9430180704730B501F01F0201249C
:102D20000025C1F3421304FA02F2012B0FD0022B4B
:102D30000FD0838A4FEA11210088134204FA01F46C
:102D400000EA040001D000B10125284630BD838986
:102D5000F0E7038AEEE70A0A01219140C9430180A6
:102D60007047000000380140004400400048004027
:102D7000004C0040005000400CB500214B48019130
:102D80000091026842F4803202604FF4A06302684E
:102D900002F400320092019A521C0192009A12B978
:102DA000019A9A42F3D10268920333D5012100912E
:102DB0003F490A6842F010020A600A6822F00302E2
:102DC0000A600A6842F002020A6041684160416894
:102DD0004160416841F480614160416821F47C11A7
:102DE0004160416841F4E8114160016841F080713F
:102DF000016001688901FCD5416821F0030141604F
:102E0000416841F0020141604168C1F3810102293A
:102E1000FAD10CBD00910CBD244810B5016841F0F9
:102E2000010101604168234A114041600168224A62
:102E300011400160016821F480210160416821F4A2
:102E4000FE0141604FF41F018160FFF795FF1B49B0
:102E50004FF00060086010BD144910B54868184A6A
:102E600010F00C03174803D0042B01D0082B0AD014
:102E700002604968134AC1F30311121D515C0268D4
:102E8000CA40026010BD4A684B6802F470124FF0ED
:102E9000020413F4803F04EB924202D04B689B0380
:102EA00001D5094B00E0064B5A43E1E70010024010
:102EB000002002400000FFF8FFFFF6FE08ED00E0F2
:102EC00000127A003C01002000093D0006488047BE
:102ED00006480047FEE7FEE7FEE7FEE7FEE7FEE7FF
:102EE000FEE7FEE7FEE7FEE7192E000831010008C5
:102EF00038B501210420FEF7A8FE1020ADF800002F
:102F000003218DF80210E24C8DF80300694620463B
:102F1000FEF7B1FC10212046FEF71BFD38BD7FB542
:102F20000C46054601210846FEF798FEADF8004024
:102F30000020ADF80450ADF80600ADF802004FF0E7
:102F4000804469462046FFF7A1F801221146204639
:102F5000FFF75AFB1C208DF80C0002208DF80D00A5
:102F600003208DF80E0001208DF80F0003A8FEF756
:102F7000B6F801212046FFF732FB7FBD7FB50C4636
:102F8000054601210220FEF769FEADF80040002051
:102F9000ADF80450BF4CADF80600ADF8020069462C
:102FA0002046FFF773F81D208DF80C0003218DF8E3
:102FB0000D108DF80E1001208DF80F0003A8FEF7FC
:102FC0008EF801212046FFF731FD7FBD10B5B14CD1
:102FD00001212046FFF72AFD00212046FFF7FDFCD6
:102FE000012211462046FFF70FFB2046BDE81040A6
:102FF0000121FFF7F4BA10B5A64C0022412120466A
:10300000FFF702FB2046BDE810400021FFF7E7BABA
:1030100070B501218C072046FFF70BFD002820D05A
:1030200001212046FFF711FD00F002FA00F0A3F99C
:10303000994C6068012814D1A068401CA0600A283F
:103040000FD1964E4FF4007529463046FEF777FCB7
:10305000C0F10100C2B229463046FEF77EFC0020D6
:10306000A06070BD10B58B4C01212046FFF7E1FC3C
:10307000002806D001212046FFF7E7FCBDE81040FC
:10308000A4E710BD70B5854D4FF400742146284665
:10309000FEF755FCC0F10100C2B221462846BDE84A
:1030A0007040FEF75ABC70B51220FDF7C6F87A4C96
:1030B0004106207040D51E20FDF7BFF86070400724
:1030C00057D500210D20FDF7A3F81320FDF7B5F823
:1030D000A0700020FDF786FA002000F0D3F900254B
:1030E000E5706F4E06E0FF2000F0CCF9E1787054F7
:1030F000491CE170E078A1788842F4D30120FDF703
:1031000071FA664E80213046FEF725FCA1786448AE
:10311000FDF730FBA57080213046FEF71AFC012038
:10312000FDF7A0F89F211120FDF772F8FF21242060
:10313000FDF76EF800212DE001071BD59F2111201E
:10314000FDF766F8FF212420FDF762F800214020FA
:10315000FDF75EF800214120FDF75AF80520FDF744
:1031600081F800210E20FDF753F800210D20FDF716
:103170004FF827E0410701D5C00714D00120FDF723
:1031800071F89F211120FDF743F8FF212420FDF75E
:103190003FF802214020FDF73BF800214120FDF7D8
:1031A00037F805200CE0FF211120FDF731F8002150
:1031B0004020FDF72DF800214120FDF729F80020DF
:1031C000FDF750F8BDE87040FF211220FDF720B850
:1031D00008B54FF4E060FDF77DFF1C208DF800007E
:1031E00000208DF8010003208DF8020001208DF8E9
:1031F00003006846FDF773FF08BD08B501210820EC
:10320000FEF723FD4FF48050ADF8000003208DF849
:10321000020010208DF8030069462248FEF72BFBC0
:1032200008BD08B501210820FEF70FFD1020ADF8FC
:10323000000003218DF802108DF80300694619483B
:10324000FEF719FB08BD38B501211020FEF7FDFC83
:103250004FF43070ADF8000003208DF8020010200C
:103260000E4C8DF8030069462046FEF704FB8021D2
:103270002046FEF76EFB40212046FEF76AFB6115F3
:103280002046FEF766FBFFF7CCFF38BD7047000015
:1032900000080140000400405001002000100140DF
:1032A0007A070020000C01401C484FF47A71006836
:1032B000B0FBF1F0B0F1807F0ED220F07F414FF0F3
:1032C000E020491E4161164AF02182F8141D0021B8
:1032D0008161072101617047FEE701B5114800993E
:1032E000016001680029FCD108BD01B50D480099B5
:1032F000016001680029FCD108BD0A480168002965
:1033000002D00168491E016070474FF4F97302E072
:103310001946491EFDD2401EFAD270473C010020DA
:103320000FE000E05C01002038B501210820FEF725
:103330008CFC01210420FEF788FC01214020FEF7CF
:1033400084FC1C20ADF8000001248DF802404820C8
:103350008DF8030069463D48FEF78DFAADF8004050
:103360008DF8024028208DF8030069463848FEF7A2
:1033700082FA38BD70472DE9F041364C00263648B8
:10338000237840F6B8324FF4007140F6B738012583
:10339000E3B1012B18D1A37863B1A3685B1CA360D0
:1033A000A3F5FA6393420FD2FEF7D3FA6560A078D3
:1033B000002809D16068012806D1A068A0F2D17068
:1033C000404501D22670A660BDE8F081A37841F2A5
:1033D0008837A3B1A3685B1CA360A3F5FA6393428B
:1033E00001D2FEF7B8FAA168B94204DB1BA000F0D5
:1033F00047F91B4805606560A0780028E4D1606843
:103400000128E1D1A068A0F2D171414504D215A0F4
:1034100000F036F92570D6E7B842D5DB16480168CA
:10342000164A01F4E06111430160BFF3408FFEE7EB
:1034300010B510211248FEF778FA80F00101054816
:10344000827821EA02024270817010BD00180140AA
:1034500000080140600100200010014025640A00BE
:10346000540100200D0A207265616C73652E2E2EAA
:103470002E2E2E2E0D0A00000CED00E00400FA05A1
:10348000000C014070B506460024334D03E0641C77
:10349000E4B2C82C0FD802212846FEF732FD0028DE
:1034A000F5D031462846FEF7E8FC002405E0641C10
:1034B000E4B2C82C01D9002070BD01212846FEF7D6
:1034C00020FD0028F3D02846FEF7D9FCC0B270BD1D
:1034D00038B5012141F20400FEF7B7FBE020ADF85A
:1034E000000018208DF8030003201C4C8DF802000A
:1034F00069462046FEF7BFF9E0212046FEF729FA8B
:10350000174800214FF4827201804280818002229C
:10351000C280012202815202428138228281C1810D
:10352000072101820C4C01462046FEF701FC0121D7
:103530002046FEF77AFCFF20FFF7A4FF38BD0649BE
:103540000A8822F038020A800A8802430A80088822
:1035500040F0400008807047003001400008014002
:103560007A0800202DE9F05F0546002092469B4630
:1035700088460646814640241BE028464146474689
:10358000224600F042F853465A46C01A914110D3E1
:1035900011461846224600F029F82D1A67EB01085B
:1035A0004F4622460120002100F020F817EB0009C9
:1035B0004E41201EA4F10104DFDC484631462A4674
:1035C0004346BDE8F09F0000064C074D06E0E0686A
:1035D00040F0010394E8070098471034AC42F6D35A
:1035E000FCF7AAFD803B0008A03B0008202A04DB72
:1035F000203A00FA02F1002070479140C2F1200306
:1036000020FA03F3194390407047202A04DB203A44
:1036100021FA02F00021704721FA02F3D040C2F1F2
:103620002002914008431946704770B58C1810F875
:10363000015B15F0070301D110F8013B2A1106D1F7
:1036400010F8012B03E010F8016B01F8016B5B1E11
:10365000F9D12B0705D40023521E0DD401F8013BEC
:10366000FAE710F8013BCB1A921C03E013F8015B58
:1036700001F8015B521EF9D5A142D8D3002070BDDC
:103680000FB4054B10B503A9044A029800F018F8CE
:1036900010BC5DF814FB00000F09000810000020AA
:1036A00002E008C8121F08C1002AFAD1704770470B
:1036B000002001E001C1121F002AFBD17047000069
:1036C0002DE9FF4F8DB09B460F460446002606E0CD
:1036D00025280BD05A460F999047641C761C2078F9
:1036E0000028F5D111B03046BDE8F08F0025A8467E
:1036F0000122984900E0054314F8013F203B02FAFB
:1037000003F00842F7D120782E2817D114F8010FC2
:1037100045F004052A280ED06FF02F022078A0F182
:10372000300109290AD808EB880102EB410100EBBE
:103730000108641CF2E757F8048B641C20786C289D
:103740000DD004DC4C2812D06A2811D104E0742872
:103750000DD07A280CD10AE045F4001507E0617815
:1037600045F48015814202D1641C05F58015641C66
:103770002278692A45D008DC002AB3D0582A69D0BB
:10378000632A10D0642A08D13BE0702A67D0732ADC
:1037900013D0752A5CD0782A5CD010465A460F990F
:1037A0009047761CD3E017F8040B8DF8000000203A
:1037B0008DF80100E946012003E057F8049B4FF023
:1037C000FF3069074FF0000501D40AE06D1C454544
:1037D0000DDA8542FADB19F805100029F6D106E06A
:1037E0006D1C8542FCDB19F805100029F8D12E4428
:1037F00004E019F8010B5A460F9990476D1EF8D254
:10380000A5E00A200021CDE90801C5F302500228F5
:103810000DD001CFC117031E71F100030DDA4FF077
:10382000000CD0EB0C006CEB01012D2308E0FF1D18
:1038300027F00707F7E80201EDE72B0504D52B2356
:103840008DF8283001233BE0EB0739D02023F7E740
:103850000A2000E010200021CDE9080107E0102037
:10386000002145F00405CDE908014FF00808C5F333
:10387000025002280FD001CF00214FF0000A2B0781
:103880001FD5702A0DD0DDE908C38CF0100C5CEA5E
:10389000030C0CD015E0FF1D27F00707F7E8020125
:1038A000EBE740228DF828204FF0010A0BE050EAA8
:1038B000010306D030238DF828308DF8292002230B
:1038C0009A46582A04D024A20DF120090B9209E04F
:1038D00026A2F9E7DDE90823FFF744FE0B9B9B5C7A
:1038E00009F8013D50EA0102F4D1ADEB09002030A6
:1038F0000890680701D44FF001080899884502DD57
:10390000A8EB010000E000208046002506E00AA8A0
:103910005A46405D0F9990476D1C761C5545F6DB65
:1039200004E030205A460F999047761CB8F1000108
:10393000A8F10108F5DC05E019F8010B5A460F99CA
:103940009047761C0899481E08900029F4DC641CF6
:10395000C5E60000092801003031323334353637EE
:1039600038396162636465660000000030313233CB
:10397000343536373839414243444546000000006B
:1039800000C1814001C0804101C0804100C181402F
:1039900001C0804100C1814000C1814001C080411F
:1039A00001C0804100C1814000C1814001C080410F
:1039B00000C1814001C0804101C0804100C18140FF
:1039C00001C0804100C1814000C1814001C08041EF
:1039D00000C1814001C0804101C0804100C18140DF
:1039E00000C1814001C0804101C0804100C18140CF
:1039F00001C0804100C1814000C1814001C08041BF
:103A000001C0804100C1814000C1814001C08041AE
:103A100000C1814001C0804101C0804100C181409E
:103A200000C1814001C0804101C0804100C181408E
:103A300001C0804100C1814000C1814001C080417E
:103A400000C1814001C0804101C0804100C181406E
:103A500001C0804100C1814000C1814001C080415E
:103A600001C0804100C1814000C1814001C080414E
:103A700000C1814001C0804101C0804100C181403E
:103A800000C0C101C30302C2C60607C705C5C404FE
:103A9000CC0C0DCD0FCFCE0E0ACACB0BC90908C86E
:103AA000D81819D91BDBDA1A1EDEDF1FDD1D1CDC5E
:103AB00014D4D515D71716D6D21213D311D1D010CE
:103AC000F03031F133F3F23236F6F737F53534F4BE
:103AD0003CFCFD3DFF3F3EFEFA3A3BFB39F9F8382E
:103AE00028E8E929EB2B2AEAEE2E2FEF2DEDEC2C1E
:103AF000E42425E527E7E62622E2E323E12120E08E
:103B0000A06061A163A3A26266A6A767A56564A47D
:103B10006CACAD6DAF6F6EAEAA6A6BAB69A9A868ED
:103B200078B8B979BB7B7ABABE7E7FBF7DBDBC7CDD
:103B3000B47475B577B7B67672B2B373B17170B04D
:103B4000509091519353529296565797559594543D
:103B50009C5C5D9D5F9F9E5E5A9A9B5B99595898AD
:103B6000884849894B8B8A4A4E8E8F4F8D4D4C8C9D
:103B7000448485458747468682424383418180400D
:103B8000A03B0008000000206C0100002A3600085D
:103B90007C3C00086C010020240B0000B0360008BB
:103BA00052FF03106C805FC012340417440A7A0C71
:103BB0000A7A140A7A1C0A4A240A74C50C1C1009D1
:103BC000B0046009C0128025A24B18140701090730
:103BD00004090703090903090705090A04090C1266
:103BE00019032B030106280B02070901090A010921
:103BF0000B0118042A171717100866801166C011E8
:103C000067100C1167401167801167C01168100CB4
:103C10001168401168801168C01169100C11694069
:103C20001169801169C0116A100C116A40116A8013
:103C3000116AC0116B100C116B40116B80126BC0BC
:103C4000126C14126C8010086C80126CC0126D1013
:103C50000C126D40126D80126DC0126E35126E40E6
:103C60001245020406082D01020304044506070854
:0C3C70000984A24A04A9170118000000F2
:0400000508000131BD
:00000001FF
